{
  "_format": "hh-sol-artifact-1",
  "contractName": "UniversalTokenRouter",
  "sourceName": "contracts/UniversalTokenRouter.sol",
  "abi": [
    {
      "inputs": [
        {
          "internalType": "address",
          "name": "pauser",
          "type": "address"
        }
      ],
      "stateMutability": "nonpayable",
      "type": "constructor"
    },
    {
      "anonymous": false,
      "inputs": [],
      "name": "Pause",
      "type": "event"
    },
    {
      "anonymous": false,
      "inputs": [],
      "name": "Unpause",
      "type": "event"
    },
    {
      "inputs": [],
      "name": "PAUSED_SLOT",
      "outputs": [
        {
          "internalType": "bytes32",
          "name": "",
          "type": "bytes32"
        }
      ],
      "stateMutability": "view",
      "type": "function"
    },
    {
      "inputs": [],
      "name": "PAUSER",
      "outputs": [
        {
          "internalType": "address",
          "name": "",
          "type": "address"
        }
      ],
      "stateMutability": "view",
      "type": "function"
    },
    {
      "inputs": [
        {
          "internalType": "bytes",
          "name": "payment",
          "type": "bytes"
        },
        {
          "internalType": "uint256",
          "name": "amount",
          "type": "uint256"
        }
      ],
      "name": "discard",
      "outputs": [],
      "stateMutability": "nonpayable",
      "type": "function"
    },
    {
      "inputs": [
        {
          "components": [
            {
              "internalType": "address",
              "name": "recipient",
              "type": "address"
            },
            {
              "internalType": "uint256",
              "name": "eip",
              "type": "uint256"
            },
            {
              "internalType": "address",
              "name": "token",
              "type": "address"
            },
            {
              "internalType": "uint256",
              "name": "id",
              "type": "uint256"
            },
            {
              "internalType": "uint256",
              "name": "amountOutMin",
              "type": "uint256"
            }
          ],
          "internalType": "struct Output[]",
          "name": "outputs",
          "type": "tuple[]"
        },
        {
          "components": [
            {
              "components": [
                {
                  "internalType": "uint256",
                  "name": "mode",
                  "type": "uint256"
                },
                {
                  "internalType": "address",
                  "name": "recipient",
                  "type": "address"
                },
                {
                  "internalType": "uint256",
                  "name": "eip",
                  "type": "uint256"
                },
                {
                  "internalType": "address",
                  "name": "token",
                  "type": "address"
                },
                {
                  "internalType": "uint256",
                  "name": "id",
                  "type": "uint256"
                },
                {
                  "internalType": "uint256",
                  "name": "amountIn",
                  "type": "uint256"
                }
              ],
              "internalType": "struct Input[]",
              "name": "inputs",
              "type": "tuple[]"
            },
            {
              "internalType": "address",
              "name": "code",
              "type": "address"
            },
            {
              "internalType": "bytes",
              "name": "data",
              "type": "bytes"
            }
          ],
          "internalType": "struct Action[]",
          "name": "actions",
          "type": "tuple[]"
        }
      ],
      "name": "exec",
      "outputs": [],
      "stateMutability": "payable",
      "type": "function"
    },
    {
      "inputs": [],
      "name": "pause",
      "outputs": [],
      "stateMutability": "payable",
      "type": "function"
    },
    {
      "inputs": [],
      "name": "paused",
      "outputs": [
        {
          "internalType": "bool",
          "name": "",
          "type": "bool"
        }
      ],
      "stateMutability": "view",
      "type": "function"
    },
    {
      "inputs": [
        {
          "internalType": "bytes",
          "name": "payment",
          "type": "bytes"
        },
        {
          "internalType": "uint256",
          "name": "amount",
          "type": "uint256"
        }
      ],
      "name": "pay",
      "outputs": [],
      "stateMutability": "nonpayable",
      "type": "function"
    },
    {
      "inputs": [
        {
          "internalType": "bytes4",
          "name": "interfaceId",
          "type": "bytes4"
        }
      ],
      "name": "supportsInterface",
      "outputs": [
        {
          "internalType": "bool",
          "name": "",
          "type": "bool"
        }
      ],
      "stateMutability": "view",
      "type": "function"
    },
    {
      "inputs": [],
      "name": "unpause",
      "outputs": [],
      "stateMutability": "payable",
      "type": "function"
    }
  ],
  "bytecode": "0x60a060405234801561000f575f5ffd5b50604051611cfe380380611cfe83398101604081905261002e9161003f565b6001600160a01b031660805261006c565b5f6020828403121561004f575f5ffd5b81516001600160a01b0381168114610065575f5ffd5b9392505050565b608051611c5e6100a05f395f818161018101528181610276015281816103220152818161040d0152610bd00152611c5e5ff3fe608060405260043610610093575f3560e01c80637fbf7b6a11610066578063c175dd371161004c578063c175dd3714610151578063d9dc869414610170578063f02c9eab146101c8575f5ffd5b80637fbf7b6a146101085780638456cb5914610149575f5ffd5b806301ffc9a7146100975780633f4ba83a146100cb5780635c975abb146100d5578063715ef7f9146100e9575b5f5ffd5b3480156100a2575f5ffd5b506100b66100b1366004611626565b6101db565b60405190151581526020015b60405180910390f35b6100d3610273565b005b3480156100e0575f5ffd5b506100b66103b8565b3480156100f4575f5ffd5b506100d36101033660046117da565b6103c6565b348015610113575f5ffd5b5061013b7f8566ab18c01df379675038cfc8d57b678d9715e3c6fe0a09469b538efa47e65c81565b6040519081526020016100c2565b6100d361040a565b34801561015c575f5ffd5b506100d361016b3660046117da565b610586565b34801561017b575f5ffd5b506101a37f000000000000000000000000000000000000000000000000000000000000000081565b60405173ffffffffffffffffffffffffffffffffffffffff90911681526020016100c2565b6100d36101d6366004611a4f565b610604565b5f7fffffffff0000000000000000000000000000000000000000000000000000000082167f4007b46500000000000000000000000000000000000000000000000000000000148061026d57507f01ffc9a7000000000000000000000000000000000000000000000000000000007fffffffff000000000000000000000000000000000000000000000000000000008316145b92915050565b337f000000000000000000000000000000000000000000000000000000000000000073ffffffffffffffffffffffffffffffffffffffff1614610317576040517f08c379a000000000000000000000000000000000000000000000000000000000815260206004820152601160248201527f5a42503a20554e415554484f52495a454400000000000000000000000000000060448201526064015b60405180910390fd5b4715610347576103477f000000000000000000000000000000000000000000000000000000000000000047610bf9565b7f8566ab18c01df379675038cfc8d57b678d9715e3c6fe0a09469b538efa47e65c80547fffffffffffffffffffffffffffffffffffffffffffffffffffffffffffffff001690556040517f7805862f689e2f13df9f062ff482ad3ad112aca9e0847911ed832e158c525b33905f90a1565b5f6103c1610d04565b905090565b6103d08282610586565b5f5f5f5f5f868060200190518101906103e99190611b60565b9450945094509450945061040185858585858b610d38565b50505050505050565b337f000000000000000000000000000000000000000000000000000000000000000073ffffffffffffffffffffffffffffffffffffffff16146104a9576040517f08c379a000000000000000000000000000000000000000000000000000000000815260206004820152601160248201527f5a42503a20554e415554484f52495a4544000000000000000000000000000000604482015260640161030e565b5f4711610512576040517f08c379a000000000000000000000000000000000000000000000000000000000815260206004820152600f60248201527f5a42503a204e4545445f56414c55450000000000000000000000000000000000604482015260640161030e565b7f8566ab18c01df379675038cfc8d57b678d9715e3c6fe0a09469b538efa47e65c80547fffffffffffffffffffffffffffffffffffffffffffffffffffffffffffffff001660011790556040517f6985a02210a168e66602d3235cb6db0e70f92b3ba4d376a33c0f3d9434bff625905f90a1565b81516020830120805c828110156105f9576040517f08c379a000000000000000000000000000000000000000000000000000000000815260206004820152601960248201527f5554523a20494e53554646494349454e545f5041594d454e5400000000000000604482015260640161030e565b828103825d50505050565b61060c610d04565b15610673576040517f08c379a000000000000000000000000000000000000000000000000000000000815260206004820152600b60248201527f5a42503a20504155534544000000000000000000000000000000000000000000604482015260640161030e565b5f5b825181101561072b575f83828151811061069157610691611bbd565b602002602001015190505f6106a582610ed5565b6080830151909150810181811015610719576040517f08c379a000000000000000000000000000000000000000000000000000000000815260206004820152601c60248201527f5554523a204f55545055545f42414c414e43455f4f564552464c4f5700000000604482015260640161030e565b60809092019190915250600101610675565b505f5b8151811015610b05575f82828151811061074a5761074a611bbd565b602002602001015190505f5f5f90505b8251518110156108ce575f835f0151828151811061077a5761077a611bbd565b602002602001015190505f815f015190506002810361079f578160a0015193506108c4565b80610833575f33836020015184604001518560600151866080015160405160200161080995949392919073ffffffffffffffffffffffffffffffffffffffff9586168152938516602085015260408401929092529092166060820152608081019190915260a00190565b6040516020818303038152906040528051906020012090505f8360a00151905080825d50506108c4565b600181036108625761085d3383602001518460400151856060015186608001518760a00151610d38565b6108c4565b6040517f08c379a000000000000000000000000000000000000000000000000000000000815260206004820152601160248201527f5554523a20494e56414c49445f4d4f4445000000000000000000000000000000604482015260640161030e565b505060010161075a565b50602082015173ffffffffffffffffffffffffffffffffffffffff161515806108fb57505f826040015151115b8061090557505f81115b15610a3657610917826020015161117c565b8061094c5750602082015161094c907f612061200000000000000000000000000000000000000000000000000000000061134a565b6109b2576040517f08c379a000000000000000000000000000000000000000000000000000000000815260206004820152601160248201527f5554523a204e4f545f43414c4c41424c45000000000000000000000000000000604482015260640161030e565b5f5f836020015173ffffffffffffffffffffffffffffffffffffffff168385604001516040516109e29190611bea565b5f6040518083038185875af1925050503d805f8114610a1c576040519150601f19603f3d011682016040523d82523d5f602084013e610a21565b606091505b509150915081610a3357805160208201fd5b50505b5f5b825151811015610af7575f835f01518281518110610a5857610a58611bbd565b602002602001015190505f815f015103610aee575f338260200151836040015184606001518560800151604051602001610ad195949392919073ffffffffffffffffffffffffffffffffffffffff9586168152938516602085015260408401929092529092166060820152608081019190915260a00190565b6040516020818303038152906040528051906020012090505f815d505b50600101610a38565b50505080600101905061072e565b50478015610b1757610b173382610bf9565b5f5b8351811015610bc3575f848281518110610b3557610b35611bbd565b602002602001015190505f610b4982610ed5565b90508160800151811015610bb9576040517f08c379a000000000000000000000000000000000000000000000000000000000815260206004820152601f60248201527f5554523a20494e53554646494349454e545f4f55545055545f414d4f554e5400604482015260640161030e565b5050600101610b19565b50504715610bf557610bf57f000000000000000000000000000000000000000000000000000000000000000047610bf9565b5050565b604080515f8082526020820190925273ffffffffffffffffffffffffffffffffffffffff8416908390604051610c2f9190611bea565b5f6040518083038185875af1925050503d805f8114610c69576040519150601f19603f3d011682016040523d82523d5f602084013e610c6e565b606091505b5050905080610cff576040517f08c379a000000000000000000000000000000000000000000000000000000000815260206004820152603460248201527f5472616e7366657248656c7065723a3a736166655472616e736665724554483a60448201527f20455448207472616e73666572206661696c6564000000000000000000000000606482015260840161030e565b505050565b5f34471180156103c15750507f8566ab18c01df379675038cfc8d57b678d9715e3c6fe0a09469b538efa47e65c5460ff1690565b83601403610d5157610d4c83878784611365565b610ecd565b8361048303610dff576040517ff242432a00000000000000000000000000000000000000000000000000000000815273ffffffffffffffffffffffffffffffffffffffff87811660048301528681166024830152604482018490526064820183905260a060848301525f60a483015284169063f242432a9060c4015b5f604051808303815f87803b158015610de4575f5ffd5b505af1158015610df6573d5f5f3e3d5ffd5b50505050610ecd565b836102d103610e6b576040517f42842e0e00000000000000000000000000000000000000000000000000000000815273ffffffffffffffffffffffffffffffffffffffff87811660048301528681166024830152604482018490528416906342842e0e90606401610dcd565b6040517f08c379a000000000000000000000000000000000000000000000000000000000815260206004820152601060248201527f5554523a20494e56414c49445f45495000000000000000000000000000000000604482015260640161030e565b505050505050565b60208101515f906014819003610f8257604083810151845191517f70a0823100000000000000000000000000000000000000000000000000000000815273ffffffffffffffffffffffffffffffffffffffff92831660048201529116906370a08231906024015b602060405180830381865afa158015610f57573d5f5f3e3d5ffd5b505050506040513d601f19601f82011682018060405250810190610f7b9190611c00565b9392505050565b8061048303610ff0576040838101518451606086015192517efdd58e00000000000000000000000000000000000000000000000000000000815273ffffffffffffffffffffffffffffffffffffffff91821660048201526024810193909352169062fdd58e90604401610f3c565b806102d10361115a5760608301517f0549972b314bb4225e5b334d0650d563c4e907124dcce9f2eae8c8b2d3d9d30d0161107f57604083810151845191517f70a0823100000000000000000000000000000000000000000000000000000000815273ffffffffffffffffffffffffffffffffffffffff92831660048201529116906370a0823190602401610f3c565b826040015173ffffffffffffffffffffffffffffffffffffffff16636352211e84606001516040518263ffffffff1660e01b81526004016110c291815260200190565b602060405180830381865afa925050508015611119575060408051601f3d9081017fffffffffffffffffffffffffffffffffffffffffffffffffffffffffffffffe016820190925261111691810190611c17565b60015b61112557505f92915050565b835173ffffffffffffffffffffffffffffffffffffffff82811691161461114c575f61114f565b60015b60ff16949350505050565b80610e6b5750505173ffffffffffffffffffffffffffffffffffffffff163190565b6040515f6024820181905260448201819052908190606401604080517fffffffffffffffffffffffffffffffffffffffffffffffffffffffffffffffe08184030181529181526020820180517bffffffffffffffffffffffffffffffffffffffffffffffffffffffff167fdd62ed3e00000000000000000000000000000000000000000000000000000000179052519091505f90819073ffffffffffffffffffffffffffffffffffffffff861690611235908590611bea565b5f60405180830381855afa9150503d805f811461126d576040519150601f19603f3d011682016040523d82523d5f602084013e611272565b606091505b509150915081158015611341575060405160206024820152601360448201527f54484953204953204e4f54204120544f4b454e000000000000000000000000006064820152608401604080517fffffffffffffffffffffffffffffffffffffffffffffffffffffffffffffffe0818403018152919052602080820180517bffffffffffffffffffffffffffffffffffffffffffffffffffffffff167f08c379a0000000000000000000000000000000000000000000000000000000001781529151909120825191830191909120145b95945050505050565b5f611354836114f7565b8015610f7b5750610f7b838361155a565b6040805173ffffffffffffffffffffffffffffffffffffffff85811660248301528481166044830152606480830185905283518084039091018152608490920183526020820180517bffffffffffffffffffffffffffffffffffffffffffffffffffffffff167f23b872dd0000000000000000000000000000000000000000000000000000000017905291515f928392908816916114039190611bea565b5f604051808303815f865af19150503d805f811461143c576040519150601f19603f3d011682016040523d82523d5f602084013e611441565b606091505b509150915081801561146b57508051158061146b57508080602001905181019061146b9190611c32565b610ecd576040517f08c379a000000000000000000000000000000000000000000000000000000000815260206004820152603160248201527f5472616e7366657248656c7065723a3a7472616e7366657246726f6d3a20747260448201527f616e7366657246726f6d206661696c6564000000000000000000000000000000606482015260840161030e565b5f611522827f01ffc9a70000000000000000000000000000000000000000000000000000000061155a565b801561026d5750611553827fffffffff0000000000000000000000000000000000000000000000000000000061155a565b1592915050565b604080517fffffffff000000000000000000000000000000000000000000000000000000008316602480830191909152825180830390910181526044909101909152602080820180517bffffffffffffffffffffffffffffffffffffffffffffffffffffffff167f01ffc9a70000000000000000000000000000000000000000000000000000000017815282515f9392849283928392918391908a617530fa92503d91505f519050828015611610575060208210155b801561161b57505f81115b979650505050505050565b5f60208284031215611636575f5ffd5b81357fffffffff0000000000000000000000000000000000000000000000000000000081168114610f7b575f5ffd5b7f4e487b71000000000000000000000000000000000000000000000000000000005f52604160045260245ffd5b6040516060810167ffffffffffffffff811182821017156116b5576116b5611665565b60405290565b60405160c0810167ffffffffffffffff811182821017156116b5576116b5611665565b60405160a0810167ffffffffffffffff811182821017156116b5576116b5611665565b604051601f82017fffffffffffffffffffffffffffffffffffffffffffffffffffffffffffffffe016810167ffffffffffffffff8111828210171561174857611748611665565b604052919050565b5f82601f83011261175f575f5ffd5b813567ffffffffffffffff81111561177957611779611665565b6117aa60207fffffffffffffffffffffffffffffffffffffffffffffffffffffffffffffffe0601f84011601611701565b8181528460208386010111156117be575f5ffd5b816020850160208301375f918101602001919091529392505050565b5f5f604083850312156117eb575f5ffd5b823567ffffffffffffffff811115611801575f5ffd5b61180d85828601611750565b95602094909401359450505050565b5f67ffffffffffffffff82111561183557611835611665565b5060051b60200190565b73ffffffffffffffffffffffffffffffffffffffff81168114611860575f5ffd5b50565b803561186e8161183f565b919050565b5f82601f830112611882575f5ffd5b81356118956118908261181c565b611701565b8082825260208201915060208360051b8601019250858311156118b6575f5ffd5b602085015b83811015611a4557803567ffffffffffffffff8111156118d9575f5ffd5b860160608189037fffffffffffffffffffffffffffffffffffffffffffffffffffffffffffffffe001121561190c575f5ffd5b611914611692565b602082013567ffffffffffffffff81111561192d575f5ffd5b82016020810190603f018a13611941575f5ffd5b803561194f6118908261181c565b80828252602082019150602060c0840285010192508c831115611970575f5ffd5b6020840193505b828410156119f15760c0848e03121561198e575f5ffd5b6119966116bb565b8435815260208501356119a88161183f565b60208201526040858101359082015260608501356119c58161183f565b60608201526080858101359082015260a08086013590820152825260c090930192602090910190611977565b845250611a0391505060408301611863565b6020820152606082013567ffffffffffffffff811115611a21575f5ffd5b611a308a602083860101611750565b604083015250845250602092830192016118bb565b5095945050505050565b5f5f60408385031215611a60575f5ffd5b823567ffffffffffffffff811115611a76575f5ffd5b8301601f81018513611a86575f5ffd5b8035611a946118908261181c565b80828252602082019150602060a08402850101925087831115611ab5575f5ffd5b6020840193505b82841015611b2c5760a08489031215611ad3575f5ffd5b611adb6116de565b8435611ae68161183f565b8152602085810135908201526040850135611b008161183f565b60408201526060858101359082015260808086013590820152825260a090930192602090910190611abc565b9450505050602083013567ffffffffffffffff811115611b4a575f5ffd5b611b5685828601611873565b9150509250929050565b5f5f5f5f5f60a08688031215611b74575f5ffd5b8551611b7f8161183f565b6020870151909550611b908161183f565b604087015160608801519195509350611ba88161183f565b60809690960151949793965091949392915050565b7f4e487b71000000000000000000000000000000000000000000000000000000005f52603260045260245ffd5b5f82518060208501845e5f920191825250919050565b5f60208284031215611c10575f5ffd5b5051919050565b5f60208284031215611c27575f5ffd5b8151610f7b8161183f565b5f60208284031215611c42575f5ffd5b81518015158114610f7b575f5ffdfea164736f6c634300081c000a",
  "linkReferences": {},
  "deployedLinkReferences": {}
}