{
  "_format": "hh-sol-artifact-1",
  "contractName": "UniversalTokenRouter",
  "sourceName": "contracts/UniversalTokenRouter.sol",
  "abi": [
    {
      "inputs": [
        {
          "internalType": "address",
          "name": "stopper",
          "type": "address"
        }
      ],
      "stateMutability": "nonpayable",
      "type": "constructor"
    },
    {
      "anonymous": false,
      "inputs": [
        {
          "indexed": false,
          "internalType": "bool",
          "name": "stopped",
          "type": "bool"
        }
      ],
      "name": "Stopped",
      "type": "event"
    },
    {
      "inputs": [],
      "name": "STOPPED_SLOT",
      "outputs": [
        {
          "internalType": "bytes32",
          "name": "",
          "type": "bytes32"
        }
      ],
      "stateMutability": "view",
      "type": "function"
    },
    {
      "inputs": [],
      "name": "STOPPER",
      "outputs": [
        {
          "internalType": "address",
          "name": "",
          "type": "address"
        }
      ],
      "stateMutability": "view",
      "type": "function"
    },
    {
      "inputs": [
        {
          "internalType": "bytes",
          "name": "payment",
          "type": "bytes"
        },
        {
          "internalType": "uint256",
          "name": "amount",
          "type": "uint256"
        }
      ],
      "name": "discard",
      "outputs": [],
      "stateMutability": "nonpayable",
      "type": "function"
    },
    {
      "inputs": [
        {
          "components": [
            {
              "internalType": "address",
              "name": "recipient",
              "type": "address"
            },
            {
              "internalType": "uint256",
              "name": "eip",
              "type": "uint256"
            },
            {
              "internalType": "address",
              "name": "token",
              "type": "address"
            },
            {
              "internalType": "uint256",
              "name": "id",
              "type": "uint256"
            },
            {
              "internalType": "uint256",
              "name": "amountOutMin",
              "type": "uint256"
            }
          ],
          "internalType": "struct Output[]",
          "name": "outputs",
          "type": "tuple[]"
        },
        {
          "components": [
            {
              "components": [
                {
                  "internalType": "uint256",
                  "name": "mode",
                  "type": "uint256"
                },
                {
                  "internalType": "address",
                  "name": "recipient",
                  "type": "address"
                },
                {
                  "internalType": "uint256",
                  "name": "eip",
                  "type": "uint256"
                },
                {
                  "internalType": "address",
                  "name": "token",
                  "type": "address"
                },
                {
                  "internalType": "uint256",
                  "name": "id",
                  "type": "uint256"
                },
                {
                  "internalType": "uint256",
                  "name": "amountIn",
                  "type": "uint256"
                }
              ],
              "internalType": "struct Input[]",
              "name": "inputs",
              "type": "tuple[]"
            },
            {
              "internalType": "address",
              "name": "code",
              "type": "address"
            },
            {
              "internalType": "bytes",
              "name": "data",
              "type": "bytes"
            }
          ],
          "internalType": "struct Action[]",
          "name": "actions",
          "type": "tuple[]"
        }
      ],
      "name": "exec",
      "outputs": [],
      "stateMutability": "payable",
      "type": "function"
    },
    {
      "inputs": [],
      "name": "isStopped",
      "outputs": [
        {
          "internalType": "bool",
          "name": "",
          "type": "bool"
        }
      ],
      "stateMutability": "view",
      "type": "function"
    },
    {
      "inputs": [
        {
          "internalType": "bytes",
          "name": "payment",
          "type": "bytes"
        },
        {
          "internalType": "uint256",
          "name": "amount",
          "type": "uint256"
        }
      ],
      "name": "pay",
      "outputs": [],
      "stateMutability": "nonpayable",
      "type": "function"
    },
    {
      "inputs": [
        {
          "internalType": "bool",
          "name": "stopped",
          "type": "bool"
        }
      ],
      "name": "setStopped",
      "outputs": [],
      "stateMutability": "payable",
      "type": "function"
    },
    {
      "inputs": [
        {
          "internalType": "bytes4",
          "name": "interfaceId",
          "type": "bytes4"
        }
      ],
      "name": "supportsInterface",
      "outputs": [
        {
          "internalType": "bool",
          "name": "",
          "type": "bool"
        }
      ],
      "stateMutability": "view",
      "type": "function"
    }
  ],
  "bytecode": "0x60a060405234801561000f575f5ffd5b50604051611c0f380380611c0f83398101604081905261002e9161003f565b6001600160a01b031660805261006c565b5f6020828403121561004f575f5ffd5b81516001600160a01b0381168114610065575f5ffd5b9392505050565b608051611b766100995f395f8181610117015281816103340152818161044f0152610ac40152611b765ff3fe608060405260043610610079575f3560e01c8063715ef7f91161004c578063715ef7f91461015e578063c175dd371461017f578063d50e829e1461019e578063f02c9eab146101b1575f5ffd5b806301ffc9a71461007d5780630ac1919d146100b15780633f683b6a146100f257806362a0a81514610106575b5f5ffd5b348015610088575f5ffd5b5061009c61009736600461151a565b6101c4565b60405190151581526020015b60405180910390f35b3480156100bc575f5ffd5b506100e47fd8e0afc27aad3d0f2651e6bf32571817495d86c35bfdfa5b5da51ad59251e08e81565b6040519081526020016100a8565b3480156100fd575f5ffd5b5061009c61025c565b348015610111575f5ffd5b506101397f000000000000000000000000000000000000000000000000000000000000000081565b60405173ffffffffffffffffffffffffffffffffffffffff90911681526020016100a8565b348015610169575f5ffd5b5061017d6101783660046116ce565b61026a565b005b34801561018a575f5ffd5b5061017d6101993660046116ce565b6102ae565b61017d6101ac366004611720565b610331565b61017d6101bf36600461196b565b6104f8565b5f7fffffffff0000000000000000000000000000000000000000000000000000000082167f4007b46500000000000000000000000000000000000000000000000000000000148061025657507f01ffc9a7000000000000000000000000000000000000000000000000000000007fffffffff000000000000000000000000000000000000000000000000000000008316145b92915050565b5f610265610aed565b905090565b61027482826102ae565b5f5f5f5f5f8680602001905181019061028d9190611a7c565b945094509450945094506102a585858585858b610b21565b50505050505050565b81516020830120805c82811015610326576040517f08c379a000000000000000000000000000000000000000000000000000000000815260206004820152601960248201527f5554523a20494e53554646494349454e545f5041594d454e540000000000000060448201526064015b60405180910390fd5b828103825d50505050565b337f000000000000000000000000000000000000000000000000000000000000000073ffffffffffffffffffffffffffffffffffffffff16146103d0576040517f08c379a000000000000000000000000000000000000000000000000000000000815260206004820152601160248201527f5a42533a20554e415554484f52495a4544000000000000000000000000000000604482015260640161031d565b8015610444575f471161043f576040517f08c379a000000000000000000000000000000000000000000000000000000000815260206004820152600f60248201527f5a42533a204e4545445f56414c55450000000000000000000000000000000000604482015260640161031d565b610474565b4715610474576104747f000000000000000000000000000000000000000000000000000000000000000047610cbe565b7fd8e0afc27aad3d0f2651e6bf32571817495d86c35bfdfa5b5da51ad59251e08e80548215157fffffffffffffffffffffffffffffffffffffffffffffffffffffffffffffff00909116811790915560408051918252517f593eae32baa13087e4ace6c5bdb2bca644d29310634cb44a78f0f2a640c6af0e9181900360200190a150565b610500610aed565b15610567576040517f08c379a000000000000000000000000000000000000000000000000000000000815260206004820152600c60248201527f5a42533a2053544f505045440000000000000000000000000000000000000000604482015260640161031d565b5f5b825181101561061f575f83828151811061058557610585611ad9565b602002602001015190505f61059982610dc9565b608083015190915081018181101561060d576040517f08c379a000000000000000000000000000000000000000000000000000000000815260206004820152601c60248201527f5554523a204f55545055545f42414c414e43455f4f564552464c4f5700000000604482015260640161031d565b60809092019190915250600101610569565b505f5b81518110156109f9575f82828151811061063e5761063e611ad9565b602002602001015190505f5f5f90505b8251518110156107c2575f835f0151828151811061066e5761066e611ad9565b602002602001015190505f815f0151905060028103610693578160a0015193506107b8565b80610727575f3383602001518460400151856060015186608001516040516020016106fd95949392919073ffffffffffffffffffffffffffffffffffffffff9586168152938516602085015260408401929092529092166060820152608081019190915260a00190565b6040516020818303038152906040528051906020012090505f8360a00151905080825d50506107b8565b60018103610756576107513383602001518460400151856060015186608001518760a00151610b21565b6107b8565b6040517f08c379a000000000000000000000000000000000000000000000000000000000815260206004820152601160248201527f5554523a20494e56414c49445f4d4f4445000000000000000000000000000000604482015260640161031d565b505060010161064e565b50602082015173ffffffffffffffffffffffffffffffffffffffff161515806107ef57505f826040015151115b806107f957505f81115b1561092a5761080b8260200151611070565b8061084057506020820151610840907f612061200000000000000000000000000000000000000000000000000000000061123e565b6108a6576040517f08c379a000000000000000000000000000000000000000000000000000000000815260206004820152601160248201527f5554523a204e4f545f43414c4c41424c45000000000000000000000000000000604482015260640161031d565b5f5f836020015173ffffffffffffffffffffffffffffffffffffffff168385604001516040516108d69190611b06565b5f6040518083038185875af1925050503d805f8114610910576040519150601f19603f3d011682016040523d82523d5f602084013e610915565b606091505b50915091508161092757805160208201fd5b50505b5f5b8251518110156109eb575f835f0151828151811061094c5761094c611ad9565b602002602001015190505f815f0151036109e2575f3382602001518360400151846060015185608001516040516020016109c595949392919073ffffffffffffffffffffffffffffffffffffffff9586168152938516602085015260408401929092529092166060820152608081019190915260a00190565b6040516020818303038152906040528051906020012090505f815d505b5060010161092c565b505050806001019050610622565b50478015610a0b57610a0b3382610cbe565b5f5b8351811015610ab7575f848281518110610a2957610a29611ad9565b602002602001015190505f610a3d82610dc9565b90508160800151811015610aad576040517f08c379a000000000000000000000000000000000000000000000000000000000815260206004820152601f60248201527f5554523a20494e53554646494349454e545f4f55545055545f414d4f554e5400604482015260640161031d565b5050600101610a0d565b50504715610ae957610ae97f000000000000000000000000000000000000000000000000000000000000000047610cbe565b5050565b5f34471180156102655750507fd8e0afc27aad3d0f2651e6bf32571817495d86c35bfdfa5b5da51ad59251e08e5460ff1690565b83601403610b3a57610b3583878784611259565b610cb6565b8361048303610be8576040517ff242432a00000000000000000000000000000000000000000000000000000000815273ffffffffffffffffffffffffffffffffffffffff87811660048301528681166024830152604482018490526064820183905260a060848301525f60a483015284169063f242432a9060c4015b5f604051808303815f87803b158015610bcd575f5ffd5b505af1158015610bdf573d5f5f3e3d5ffd5b50505050610cb6565b836102d103610c54576040517f42842e0e00000000000000000000000000000000000000000000000000000000815273ffffffffffffffffffffffffffffffffffffffff87811660048301528681166024830152604482018490528416906342842e0e90606401610bb6565b6040517f08c379a000000000000000000000000000000000000000000000000000000000815260206004820152601060248201527f5554523a20494e56414c49445f45495000000000000000000000000000000000604482015260640161031d565b505050505050565b604080515f8082526020820190925273ffffffffffffffffffffffffffffffffffffffff8416908390604051610cf49190611b06565b5f6040518083038185875af1925050503d805f8114610d2e576040519150601f19603f3d011682016040523d82523d5f602084013e610d33565b606091505b5050905080610dc4576040517f08c379a000000000000000000000000000000000000000000000000000000000815260206004820152603460248201527f5472616e7366657248656c7065723a3a736166655472616e736665724554483a60448201527f20455448207472616e73666572206661696c6564000000000000000000000000606482015260840161031d565b505050565b60208101515f906014819003610e7657604083810151845191517f70a0823100000000000000000000000000000000000000000000000000000000815273ffffffffffffffffffffffffffffffffffffffff92831660048201529116906370a08231906024015b602060405180830381865afa158015610e4b573d5f5f3e3d5ffd5b505050506040513d601f19601f82011682018060405250810190610e6f9190611b1c565b9392505050565b8061048303610ee4576040838101518451606086015192517efdd58e00000000000000000000000000000000000000000000000000000000815273ffffffffffffffffffffffffffffffffffffffff91821660048201526024810193909352169062fdd58e90604401610e30565b806102d10361104e5760608301517f0549972b314bb4225e5b334d0650d563c4e907124dcce9f2eae8c8b2d3d9d30d01610f7357604083810151845191517f70a0823100000000000000000000000000000000000000000000000000000000815273ffffffffffffffffffffffffffffffffffffffff92831660048201529116906370a0823190602401610e30565b826040015173ffffffffffffffffffffffffffffffffffffffff16636352211e84606001516040518263ffffffff1660e01b8152600401610fb691815260200190565b602060405180830381865afa92505050801561100d575060408051601f3d9081017fffffffffffffffffffffffffffffffffffffffffffffffffffffffffffffffe016820190925261100a91810190611b33565b60015b61101957505f92915050565b835173ffffffffffffffffffffffffffffffffffffffff828116911614611040575f611043565b60015b60ff16949350505050565b80610c545750505173ffffffffffffffffffffffffffffffffffffffff163190565b6040515f6024820181905260448201819052908190606401604080517fffffffffffffffffffffffffffffffffffffffffffffffffffffffffffffffe08184030181529181526020820180517bffffffffffffffffffffffffffffffffffffffffffffffffffffffff167fdd62ed3e00000000000000000000000000000000000000000000000000000000179052519091505f90819073ffffffffffffffffffffffffffffffffffffffff861690611129908590611b06565b5f60405180830381855afa9150503d805f8114611161576040519150601f19603f3d011682016040523d82523d5f602084013e611166565b606091505b509150915081158015611235575060405160206024820152601360448201527f54484953204953204e4f54204120544f4b454e000000000000000000000000006064820152608401604080517fffffffffffffffffffffffffffffffffffffffffffffffffffffffffffffffe0818403018152919052602080820180517bffffffffffffffffffffffffffffffffffffffffffffffffffffffff167f08c379a0000000000000000000000000000000000000000000000000000000001781529151909120825191830191909120145b95945050505050565b5f611248836113eb565b8015610e6f5750610e6f838361144e565b6040805173ffffffffffffffffffffffffffffffffffffffff85811660248301528481166044830152606480830185905283518084039091018152608490920183526020820180517bffffffffffffffffffffffffffffffffffffffffffffffffffffffff167f23b872dd0000000000000000000000000000000000000000000000000000000017905291515f928392908816916112f79190611b06565b5f604051808303815f865af19150503d805f8114611330576040519150601f19603f3d011682016040523d82523d5f602084013e611335565b606091505b509150915081801561135f57508051158061135f57508080602001905181019061135f9190611b4e565b610cb6576040517f08c379a000000000000000000000000000000000000000000000000000000000815260206004820152603160248201527f5472616e7366657248656c7065723a3a7472616e7366657246726f6d3a20747260448201527f616e7366657246726f6d206661696c6564000000000000000000000000000000606482015260840161031d565b5f611416827f01ffc9a70000000000000000000000000000000000000000000000000000000061144e565b80156102565750611447827fffffffff0000000000000000000000000000000000000000000000000000000061144e565b1592915050565b604080517fffffffff000000000000000000000000000000000000000000000000000000008316602480830191909152825180830390910181526044909101909152602080820180517bffffffffffffffffffffffffffffffffffffffffffffffffffffffff167f01ffc9a70000000000000000000000000000000000000000000000000000000017815282515f9392849283928392918391908a617530fa92503d91505f519050828015611504575060208210155b801561150f57505f81115b979650505050505050565b5f6020828403121561152a575f5ffd5b81357fffffffff0000000000000000000000000000000000000000000000000000000081168114610e6f575f5ffd5b7f4e487b71000000000000000000000000000000000000000000000000000000005f52604160045260245ffd5b6040516060810167ffffffffffffffff811182821017156115a9576115a9611559565b60405290565b60405160c0810167ffffffffffffffff811182821017156115a9576115a9611559565b60405160a0810167ffffffffffffffff811182821017156115a9576115a9611559565b604051601f82017fffffffffffffffffffffffffffffffffffffffffffffffffffffffffffffffe016810167ffffffffffffffff8111828210171561163c5761163c611559565b604052919050565b5f82601f830112611653575f5ffd5b813567ffffffffffffffff81111561166d5761166d611559565b61169e60207fffffffffffffffffffffffffffffffffffffffffffffffffffffffffffffffe0601f840116016115f5565b8181528460208386010111156116b2575f5ffd5b816020850160208301375f918101602001919091529392505050565b5f5f604083850312156116df575f5ffd5b823567ffffffffffffffff8111156116f5575f5ffd5b61170185828601611644565b95602094909401359450505050565b801515811461171d575f5ffd5b50565b5f60208284031215611730575f5ffd5b8135610e6f81611710565b5f67ffffffffffffffff82111561175457611754611559565b5060051b60200190565b73ffffffffffffffffffffffffffffffffffffffff8116811461171d575f5ffd5b803561178a8161175e565b919050565b5f82601f83011261179e575f5ffd5b81356117b16117ac8261173b565b6115f5565b8082825260208201915060208360051b8601019250858311156117d2575f5ffd5b602085015b8381101561196157803567ffffffffffffffff8111156117f5575f5ffd5b860160608189037fffffffffffffffffffffffffffffffffffffffffffffffffffffffffffffffe0011215611828575f5ffd5b611830611586565b602082013567ffffffffffffffff811115611849575f5ffd5b82016020810190603f018a1361185d575f5ffd5b803561186b6117ac8261173b565b80828252602082019150602060c0840285010192508c83111561188c575f5ffd5b6020840193505b8284101561190d5760c0848e0312156118aa575f5ffd5b6118b26115af565b8435815260208501356118c48161175e565b60208201526040858101359082015260608501356118e18161175e565b60608201526080858101359082015260a08086013590820152825260c090930192602090910190611893565b84525061191f9150506040830161177f565b6020820152606082013567ffffffffffffffff81111561193d575f5ffd5b61194c8a602083860101611644565b604083015250845250602092830192016117d7565b5095945050505050565b5f5f6040838503121561197c575f5ffd5b823567ffffffffffffffff811115611992575f5ffd5b8301601f810185136119a2575f5ffd5b80356119b06117ac8261173b565b80828252602082019150602060a084028501019250878311156119d1575f5ffd5b6020840193505b82841015611a485760a084890312156119ef575f5ffd5b6119f76115d2565b8435611a028161175e565b8152602085810135908201526040850135611a1c8161175e565b60408201526060858101359082015260808086013590820152825260a0909301926020909101906119d8565b9450505050602083013567ffffffffffffffff811115611a66575f5ffd5b611a728582860161178f565b9150509250929050565b5f5f5f5f5f60a08688031215611a90575f5ffd5b8551611a9b8161175e565b6020870151909550611aac8161175e565b604087015160608801519195509350611ac48161175e565b60809690960151949793965091949392915050565b7f4e487b71000000000000000000000000000000000000000000000000000000005f52603260045260245ffd5b5f82518060208501845e5f920191825250919050565b5f60208284031215611b2c575f5ffd5b5051919050565b5f60208284031215611b43575f5ffd5b8151610e6f8161175e565b5f60208284031215611b5e575f5ffd5b8151610e6f8161171056fea164736f6c634300081c000a",
  "linkReferences": {},
  "deployedLinkReferences": {}
}